:020000040800F2
:1000000000200020290D0008A9070008AB07000800
:1000100000000000000000000000000000000000E0
:10002000000000000000000000000000AD07000814
:100030000000000000000000AF070008B107000842
:10004000790D0008790D0008790D0008790D000878
:10005000790D0008790D0008790D0008790D000868
:10006000790D0008790D0008790D0008790D000858
:10007000790D0008790D0008790D0008790D000848
:10008000790D0008790D000800000000790D0008C6
:10009000790D0008F9050008790D0008790D0008B0
:1000A000790D0008790D0008790D0008790D000818
:1000B000790D000800000000790D00080000000024
:1000C00010B5064C2378002B07D1054B002B02D02E
:1000D000044800E000BF0123237010BD5800002039
:1000E00000000000D40D0008044B10B5002B03D015
:1000F0000349044800E000BF10BDC04600000000F6
:100100005C000020D40D0008002243088B4274D309
:1001100003098B425FD3030A8B4244D3030B8B4208
:1001200028D3030C8B420DD3FF22090212BA030C11
:100130008B4202D31212090265D0030B8B4219D3F2
:1001400000E0090AC30B8B4201D3CB03C01A524112
:10015000830B8B4201D38B03C01A5241430B8B425A
:1001600001D34B03C01A5241030B8B4201D30B0343
:10017000C01A5241C30A8B4201D3CB02C01A52416A
:10018000830A8B4201D38B02C01A5241430A8B422D
:1001900001D34B02C01A5241030A8B4201D30B0216
:1001A000C01A5241CDD2C3098B4201D3CB01C01A30
:1001B000524183098B4201D38B01C01A524143093A
:1001C0008B4201D34B01C01A524103098B4201D328
:1001D0000B01C01A5241C3088B4201D3CB00C01A95
:1001E000524183088B4201D38B00C01A524143080D
:1001F0008B4201D34B00C01A5241411A00D2014632
:10020000524110467047FFE701B5002000F0F0F8BA
:1002100002BDC0460029F7D076E7704703460B437E
:100220007FD4002243088B4274D303098B425FD3EF
:10023000030A8B4244D3030B8B4228D3030C8B421B
:100240000DD3FF22090212BA030C8B4202D3121201
:10025000090265D0030B8B4219D300E0090AC30BD6
:100260008B4201D3CB03C01A5241830B8B4201D383
:100270008B03C01A5241430B8B4201D34B03C01A6C
:100280005241030B8B4201D30B03C01A5241C30AE4
:100290008B4201D3CB02C01A5241830A8B4201D355
:1002A0008B02C01A5241430A8B4201D34B02C01A3F
:1002B0005241030A8B4201D30B02C01A5241CDD2E4
:1002C000C3098B4201D3CB01C01A524183098B422F
:1002D00001D38B01C01A524143098B4201D34B0118
:1002E000C01A524103098B4201D30B01C01A52417B
:1002F000C3088B4201D3CB00C01A524183088B4202
:1003000001D38B00C01A524143088B4201D34B00EA
:10031000C01A5241411A00D201465241104670475C
:100320005DE0CA0F00D04942031000D34042534061
:1003300000229C4603098B422DD3030A8B4212D321
:10034000FC22890112BA030A8B420CD38901921153
:100350008B4208D3890192118B4204D389013AD090
:10036000921100E08909C3098B4201D3CB01C01A65
:10037000524183098B4201D38B01C01A5241430978
:100380008B4201D34B01C01A524103098B4201D366
:100390000B01C01A5241C3088B4201D3CB00C01AD3
:1003A000524183088B4201D38B00C01A5241D9D2EB
:1003B00043088B4201D34B00C01A5241411A00D26C
:1003C0000146634652415B10104601D34042002B68
:1003D00000D54942704763465B1000D3404201B5E7
:1003E000002000F005F802BD0029F8D016E770479C
:1003F0007047C046F0B5DE4657464E464546E0B526
:100400008BB01822002104A800F0B7FC5D4B5A699C
:100410008021C9030A435A615A690A400392039A28
:100420005A69802189020A435A615A690A40029234
:10043000029A5A698021C9020A435A615B690B40DA
:100440000193019B504D0126AE6202239A46AB6296
:1004500002339946AB6204339846AB6208339B463D
:10046000AB621033AB624022AA628021A96204967B
:1004700008969027FF0504A80100380000F09DF9B8
:100480005046049000240594089604A80100380002
:1004900000F093F9484604900594089604A80100DA
:1004A000380000F08AF9404604900594089604A8A4
:1004B0000100380000F081F904960596069407942F
:1004C000089404A80100280000F077F95046049031
:1004D000059606940794089404A80100280000F0EB
:1004E0006CF948460490059606940794089404A86D
:1004F0000100280000F061F940460490059606943A
:100500000794089404A80100280000F056F9584602
:100510000490059606940794089404A80100280006
:1005200000F04BF920230493059606940794089451
:1005300004AB1900280000F040F94022049205960F
:1005400006940794089404AB1900280000F035F9CC
:1005500080210491059606940794089404A9280024
:1005600000F02BF980239B0004930594089404A9C0
:10057000280000F022F90BB0F0BCBB46B246A946F9
:10058000A046F0BD001002400004004830B585B020
:100590006A46154B31CB31C21B681360002407E05B
:1005A00063006A46995A0122104800F01AFA013491
:1005B000072C0FDC0E4B0F4A1278D2009B181B5DE4
:1005C000012BEDD063006A46995A0022074800F0DB
:1005D00008FAECE7074C207801300921FFF704FF07
:1005E000217005B030BDC046EC0D00080004004885
:1005F000040000207400002010B5054C200000F01D
:1006000032FA200000F02FFAFFF7C0FF10BDC046FD
:100610007800002072B6FEE710B50D480D4B036060
:100620000D4B4360002383600C4A1268013AC2609C
:10063000036143618033836100F014FB002804D11F
:10064000074B802292031A6010BDFFF7E3FFC046FC
:1006500078000020004401403F1F000000000020FF
:1006600000E100E010B51A4A136801218B431360C2
:10067000174B1B68DB07FBD4164A136801210B4399
:100680001360144B1B689B07FBD5124B1A68F821AB
:100690008A4378390A431A605A6870318A435A602B
:1006A0005A680D490A405A605A6803218A435A60C1
:1006B000084B5B680C221A42FAD1084800F02EFB66
:1006C000032000F0D7F8002800D110BDFFF7A2FFEB
:1006D0000020024000100240FFF8FFFF00127A00E5
:1006E00010B500F0EFF8FFF7BDFFFFF783FEFFF74F
:1006F00093FF2A4800F07CF90FE0052000F004F990
:1007000090200821C00500F065F9002802D1244B93
:1007100000221A70052000F0F7F890200121C00592
:1007200000F058F900280BD11E4BFA2252001A6033
:100730001A681A490868013AC2621B68013BCB601B
:10074000052000F0E1F890200221C00500F042F9F8
:1007500000280BD1134BFA22D2001A601A680F49F5
:100760000868013AC2621B68013BCB60052000F0BB
:10077000CBF890200421C00500F02CF90028BCD152
:10078000084BFA2292001A601A6804490868013A74
:10079000C2621B68013BCB60AFE7C0467800002017
:1007A0007400002000000020FEE7FEE7704770475D
:1007B00010B500F097F810BD7047F0B5002216E0B4
:1007C0000B699C46C4682B006B435E00F618F74328
:1007D000B44366465E433443C4604C68022C26D062
:1007E0004D6804683C406B432343036001320C684E
:1007F0002300D3403BD00123934025001D401C42E1
:10080000F4D04B68013B012BDAD88F6883682C0049
:100810006C4366003619B3437C43234383600E6800
:10082000CC684368B343744323434360C8E7FF2D58
:100830000DD84C69A446066A1C006C436C43250124
:100840002D1BAE4365466C4334430462C8E74C69D4
:10085000A446466A2D0A2C006C436C436C43250168
:100860002D1BAE4365466C4334434462B8E7002019
:10087000F0BD000010B504000F4B1978FA2080007D
:10088000FFF742FC01000D4B1868FFF73DFC00F03C
:100890009DF800280DD1032C01D901200AE0013078
:1008A00000222100404200F08DF8054B1C60002022
:1008B00000E0012010BDC046500000204C00002088
:1008C0005400002010B5064A136810210B43136032
:1008D0000320FFF7CFFF00F0F3F9002010BDC04662
:1008E00000200240034A1168034B1B785B18136019
:1008F0007047C046C000002050000020014B18681F
:100900007047C046C000002070B50400FFF7F6FF36
:100910000500631C02D0044B1B78E418FFF7EEFFC0
:10092000401BA042FAD370BD5000002070B50028D3
:1009300011DB8308134DC0339B005C590322104028
:10094000C000FC3216008640B44389010A40824050
:1009500022435A5170BD0F230340083B9B080633C6
:100960009B00094A944663445C6803221040C0001F
:10097000FC3215008540AC4389010A408240224385
:100980005A60E7E700E100E000ED00E00138802375
:100990005B0498420FD2094A50600948036A1B025F
:1009A0001B0AC02109060B4303620023936007332F
:1009B0001360002070470120FCE7C04610E000E013
:1009C00000ED00E010B5FFF7B1FF10BD10B5FFF767
:1009D000DDFF10BD03690B4201D0012070470020EC
:1009E000FCE7002A01D0816170478162FCE70000CA
:1009F0003D23C35C012B26D13C330222C254026842
:100A0000D36801210B43D3600368114A93420FD08E
:100A10008022D20593420BD00E4A934208D00E4A50
:100A2000934205D01A6801210A431A6000200BE0A6
:100A3000996807220A40062A07D01A6801210A434A
:100A40001A60002000E0012070470020FCE7C0464B
:100A5000002C0140000400400040014070477047F6
:100A600070477047704710B50400026813699B0710
:100A70000FD5D3689B070CD503235B421361043366
:100A8000037703689B699B0763D0FFF7E9FF0023A7
:100A90002377226813695B0712D5D3685B070FD5EC
:100AA00005235B4213610733237723689A69C023C8
:100AB0009B001A4253D02000FFF7D2FF0023237778
:100AC000226813691B0710D5D3681B070DD50923AE
:100AD0005B4213610D3323772368DB699B0745D0A5
:100AE0002000FFF7BDFF0023237722681369DB0690
:100AF00012D5D368DB060FD511235B42136119337E
:100B000023772368DA69C0239B001A4235D020007E
:100B1000FFF7A6FF0023237722681369DB0702D5BE
:100B2000D368DB0730D4226813691B0602D5D3686B
:100B30001B0630D4226813695B0602D5D3685B06B6
:100B400030D4226813699B0602D5D3689B0630D443
:100B500010BDFFF784FF2000FFF783FF97E7200019
:100B6000FFF77DFF2000FFF77CFFA7E72000FFF7DE
:100B700076FF2000FFF775FFB5E72000FFF76FFF56
:100B80002000FFF76EFFC5E702235B4213612000E0
:100B9000FFF764FFC7E781235B421361200000F089
:100BA0008EF8C7E741235B4213612000FFF75AFF2D
:100BB000C7E721235B421361200000F07FF8C7E7FD
:100BC0000368214A904206D08022D205904202D08A
:100BD0001E4A904203D1702293434A6813431A4A33
:100BE000904212D08022D20590420ED0174A9042F5
:100BF0000BD0174A904208D0164A904205D0164AA8
:100C0000904202D0154A904203D1154A1A40CB684F
:100C10001343802293434A69134303608B68C36282
:100C20000B688362084B984208D00A4B984205D063
:100C3000094B984202D0094B984201D10B690363DA
:100C4000012343617047C046002C0140000400406E
:100C500000200040004001400044014000480140A5
:100C6000FFFCFFFF70B5041E26D03D23C35C002BA4
:100C70001CD03D2502236355210001C9FFF7A0FFC9
:100C800001234622A354083AA3540132A35401324B
:100C9000A3540132A3540132A3540132A3540132AC
:100CA000A3540132A3546355002070BD3C3300228D
:100CB000C25400F01DF8DCE70120F6E770477047EA
:100CC00082B00A4B996901221143996199690A40DE
:100CD0000092009ADA69802149050A43DA61DB69EA
:100CE0000B400193019B02B07047C04600100240C8
:100CF00082B00268074B9A4201D002B07047064B9F
:100D00009A69802189020A439A619B690B40019389
:100D1000019BF2E70044014000100240014B1860C3
:100D20007047C0464C0000200D488546FFF744FD43
:100D30000C480D490D4A002302E0D458C450043336
:100D4000C4188C42F9D30A4A0A4C002301E013600C
:100D50000432A242FBD300F019F8FFF7C1FCFEE712
:100D6000002000200000002058000020040E000891
:100D700058000020C4000020FEE7030082189342C0
:100D800000D1704719700133F9E7000070B50026F3
:100D90000C4C0D4D641BA410A64209D1002600F096
:100DA00019F80A4C0A4D641BA410A64205D170BD67
:100DB000B300EB5898470136EEE7B300EB5898477D
:100DC0000136F2E7FC0D0008FC0D0008000E0008DB
:100DD000FC0D0008F8B5C046F8BC08BC9E4670473C
:0C0DE000F8B5C046F8BC08BC9E46704741
:100DEC0080004000200010000800040002000100F8
:040DFC00E900000802
:040E0000C100000825
:100E0400E8030000010101000100000101010001EB
:100E140000000100010001000001000000010000C9
:100E240001000000010000010000000000000100BA
:100E340000000000000100000000000001000000AC
:100E440000000000000000000000000000127A0012
:080E5400010000000400000091
:0400000508000D29B9
:00000001FF
